{
  "contractName": "Counter",
  "abi": [
    {
      "inputs": [],
      "stateMutability": "nonpayable",
      "type": "constructor"
    },
    {
      "anonymous": false,
      "inputs": [
        {
          "indexed": false,
          "internalType": "uint256",
          "name": "value",
          "type": "uint256"
        }
      ],
      "name": "Decrement",
      "type": "event"
    },
    {
      "anonymous": false,
      "inputs": [
        {
          "indexed": false,
          "internalType": "uint256",
          "name": "value",
          "type": "uint256"
        }
      ],
      "name": "Increment",
      "type": "event"
    },
    {
      "inputs": [],
      "name": "getCount",
      "outputs": [
        {
          "internalType": "uint256",
          "name": "",
          "type": "uint256"
        }
      ],
      "stateMutability": "view",
      "type": "function"
    },
    {
      "inputs": [],
      "name": "increment",
      "outputs": [],
      "stateMutability": "nonpayable",
      "type": "function"
    },
    {
      "inputs": [],
      "name": "decrement",
      "outputs": [],
      "stateMutability": "nonpayable",
      "type": "function"
    }
  ],
  "bytecode": "0x60806040526105a060005534801561001657600080fd5b506000808190555061024c8061002d6000396000f3fe608060405234801561001057600080fd5b50600436106100415760003560e01c80632baeceb714610046578063a87d942c14610050578063d09de08a1461006e575b600080fd5b61004e610078565b005b6100586100cc565b6040516100659190610142565b60405180910390f35b6100766100d5565b005b600160008082825461008a919061018c565b925050819055507f32814a5bdfd1b8c3d76c49c54e043d6e8aa93d197a09e16599b567135503f7486000546040516100c29190610142565b60405180910390a1565b60008054905090565b60016000808282546100e791906101c0565b925050819055507f51af157c2eee40f68107a47a49c32fbbeb0a3c9e5cd37aa56e88e6be92368a8160005460405161011f9190610142565b60405180910390a1565b6000819050919050565b61013c81610129565b82525050565b60006020820190506101576000830184610133565b92915050565b7f4e487b7100000000000000000000000000000000000000000000000000000000600052601160045260246000fd5b600061019782610129565b91506101a283610129565b9250828210156101b5576101b461015d565b5b828203905092915050565b60006101cb82610129565b91506101d683610129565b9250827fffffffffffffffffffffffffffffffffffffffffffffffffffffffffffffffff0382111561020b5761020a61015d565b5b82820190509291505056fea2646970667358221220d0758f9dc1efbcf683216042b3eb881c99e6b99186e8549caa4bc0b1e4e42a5064736f6c634300080b0033",
  "immutableReferences": {},
  "source": "pragma solidity ^0.8.0;\n\ncontract Counter {\n    uint count = 1440; //Stores the state on the block chain\n\n    event Increment(uint value);  //Anyone can listen/ subscribe to this event\n    event Decrement(uint value);\n\n    constructor() {\n       count = 0;\n    }\n\n    function getCount() view public returns(uint) {\n        return count;\n    }\n\n    function increment() public {\n        count += 1;\n        emit Increment(count);\n    }\n\n    function decrement() public {\n        count -= 1;\n        emit Decrement(count);\n    }\n\n}\n",
  "sourcePath": "/Users/srikrishnamannem/Desktop/Git/HelloWorldSolidity/contracts/Counter.sol",
  "compiler": {
    "name": "solc",
    "version": "0.8.11+commit.d7f03943.Emscripten.clang"
  },
  "schemaVersion": "3.4.4",
  "updatedAt": "2022-01-12T17:24:26.426Z",
  "devdoc": {
    "kind": "dev",
    "methods": {},
    "version": 1
  },
  "userdoc": {
    "kind": "user",
    "methods": {},
    "version": 1
  }
}